:100000000EC01DC01CC01BC01AC019C018C017C02C
:1000100016C015C014C013C012C011C010C01124E6
:100020001FBECFE5D1E0DEBFCDBF20E0A0E6B0E04F
:1000300001C01D92A536B207E1F788D029C1E0CFF3
:10004000FC019081862F809598239083ABECB0E0E3
:100050001197F1F700C00000908140FF02C0962B7D
:1000600001C098239083ABECB0E01197F1F700C08A
:100070000000908141FF02C0962B01C0982390831D
:10008000ABECB0E01197F1F700C00000908142FFA7
:1000900002C0962B01C098239083ABECB0E011977F
:1000A000F1F700C00000908143FF02C0962B01C011
:1000B00098239083ABECB0E01197F1F700C00000FB
:1000C000908144FF02C0962B01C098239083ABEC33
:1000D000B0E01197F1F700C00000908145FF02C029
:1000E000962B01C098239083ABECB0E01197F1F709
:1000F00000C00000908146FF02C0962B01C09823EB
:100100009083ABECB0E01197F1F700C0000047FF1F
:1001100004C08081862B808303C0908198239083C4
:100120008BEC90E00197F1F700C000008081862BF6
:100130008083ABECB0E01197F1F700C000008BECCE
:1001400090E00197F1F700C00000089580E886BDB7
:1001500016BCC29ABA9AC498BC9A83E087B987E859
:1001600086B910926400109263001092620010929F
:1001700061001092600080916000843690F587ECF9
:1001800090E00197F1F700C00000C49A369A3699C2
:10019000FECF24B135B18091630090916400820F4D
:1001A000931F909364008093630087EC90E0019725
:1001B000F1F700C00000C498369A3699FECF24B1FA
:1001C00035B18091610090916200820F931F9093EE
:1001D000620080936100809160008F5F8093600077
:1001E000CACF41E064E088E390E02ADF8FE19EE43B
:1001F0000197F1F700C0000042E064E088E390E07E
:100200001FDF8FE19EE40197F1F700C0000043E09B
:1002100064E088E390E014DF8FE19EE40197F1F75A
:1002200000C0000044E064E088E390E009DF409112
:10023000630064E088E390E003DF8FE19EE40197D0
:10024000F1F700C000004091640064E088E390E0B2
:10025000F7DE8FE19EE40197F1F700C000004091C6
:10026000610064E088E390E0EBDE8FE19EE40197BB
:10027000F1F700C000004091620064E088E390E084
:10028000DFDE8FE19EE40197F1F700C0000069CF47
:04029000F894FFCF10
:00000001FF
